{
  "contractName": "Kittycontract",
  "abi": [
    {
      "anonymous": false,
      "inputs": [
        {
          "indexed": true,
          "internalType": "address",
          "name": "owner",
          "type": "address"
        },
        {
          "indexed": true,
          "internalType": "address",
          "name": "approved",
          "type": "address"
        },
        {
          "indexed": true,
          "internalType": "uint256",
          "name": "tokenId",
          "type": "uint256"
        }
      ],
      "name": "Approval",
      "type": "event"
    },
    {
      "anonymous": false,
      "inputs": [
        {
          "indexed": false,
          "internalType": "address",
          "name": "owner",
          "type": "address"
        },
        {
          "indexed": false,
          "internalType": "uint256",
          "name": "newKittyID",
          "type": "uint256"
        },
        {
          "indexed": false,
          "internalType": "uint256",
          "name": "momId",
          "type": "uint256"
        },
        {
          "indexed": false,
          "internalType": "uint256",
          "name": "dadId",
          "type": "uint256"
        },
        {
          "indexed": false,
          "internalType": "uint256",
          "name": "gens",
          "type": "uint256"
        }
      ],
      "name": "Birth",
      "type": "event"
    },
    {
      "anonymous": false,
      "inputs": [
        {
          "indexed": true,
          "internalType": "address",
          "name": "previousOwner",
          "type": "address"
        },
        {
          "indexed": true,
          "internalType": "address",
          "name": "newOwner",
          "type": "address"
        }
      ],
      "name": "OwnershipTransferred",
      "type": "event"
    },
    {
      "anonymous": false,
      "inputs": [
        {
          "indexed": true,
          "internalType": "address",
          "name": "from",
          "type": "address"
        },
        {
          "indexed": true,
          "internalType": "address",
          "name": "to",
          "type": "address"
        },
        {
          "indexed": true,
          "internalType": "uint256",
          "name": "tokenId",
          "type": "uint256"
        }
      ],
      "name": "Transfer",
      "type": "event"
    },
    {
      "inputs": [],
      "name": "LIMIT_GEN0_CAT",
      "outputs": [
        {
          "internalType": "uint256",
          "name": "",
          "type": "uint256"
        }
      ],
      "stateMutability": "view",
      "type": "function",
      "constant": true
    },
    {
      "inputs": [],
      "name": "TokenName",
      "outputs": [
        {
          "internalType": "string",
          "name": "",
          "type": "string"
        }
      ],
      "stateMutability": "view",
      "type": "function",
      "constant": true
    },
    {
      "inputs": [],
      "name": "TokenSymbol",
      "outputs": [
        {
          "internalType": "string",
          "name": "",
          "type": "string"
        }
      ],
      "stateMutability": "view",
      "type": "function",
      "constant": true
    },
    {
      "inputs": [],
      "name": "counterCat",
      "outputs": [
        {
          "internalType": "uint256",
          "name": "",
          "type": "uint256"
        }
      ],
      "stateMutability": "view",
      "type": "function",
      "constant": true
    },
    {
      "inputs": [],
      "name": "owner",
      "outputs": [
        {
          "internalType": "address",
          "name": "",
          "type": "address"
        }
      ],
      "stateMutability": "view",
      "type": "function",
      "constant": true
    },
    {
      "inputs": [],
      "name": "renounceOwnership",
      "outputs": [],
      "stateMutability": "nonpayable",
      "type": "function"
    },
    {
      "inputs": [
        {
          "internalType": "address",
          "name": "newOwner",
          "type": "address"
        }
      ],
      "name": "transferOwnership",
      "outputs": [],
      "stateMutability": "nonpayable",
      "type": "function"
    },
    {
      "inputs": [
        {
          "internalType": "uint256",
          "name": "_gens",
          "type": "uint256"
        }
      ],
      "name": "createKittyGen0",
      "outputs": [
        {
          "internalType": "uint256",
          "name": "",
          "type": "uint256"
        }
      ],
      "stateMutability": "nonpayable",
      "type": "function"
    },
    {
      "inputs": [
        {
          "internalType": "uint256",
          "name": "_tokenId",
          "type": "uint256"
        }
      ],
      "name": "getKitty",
      "outputs": [
        {
          "internalType": "uint256",
          "name": "momId",
          "type": "uint256"
        },
        {
          "internalType": "uint256",
          "name": "dadId",
          "type": "uint256"
        },
        {
          "internalType": "uint256",
          "name": "generation",
          "type": "uint256"
        },
        {
          "internalType": "uint256",
          "name": "gens",
          "type": "uint256"
        },
        {
          "internalType": "uint256",
          "name": "birthTime",
          "type": "uint256"
        }
      ],
      "stateMutability": "view",
      "type": "function",
      "constant": true
    },
    {
      "inputs": [
        {
          "internalType": "address",
          "name": "owner",
          "type": "address"
        }
      ],
      "name": "balanceOf",
      "outputs": [
        {
          "internalType": "uint256",
          "name": "balance",
          "type": "uint256"
        }
      ],
      "stateMutability": "view",
      "type": "function",
      "constant": true
    },
    {
      "inputs": [],
      "name": "totalSupply",
      "outputs": [
        {
          "internalType": "uint256",
          "name": "total",
          "type": "uint256"
        }
      ],
      "stateMutability": "view",
      "type": "function",
      "constant": true
    },
    {
      "inputs": [],
      "name": "name",
      "outputs": [
        {
          "internalType": "string",
          "name": "tokenName",
          "type": "string"
        }
      ],
      "stateMutability": "view",
      "type": "function",
      "constant": true
    },
    {
      "inputs": [],
      "name": "symbol",
      "outputs": [
        {
          "internalType": "string",
          "name": "tokenSymbol",
          "type": "string"
        }
      ],
      "stateMutability": "view",
      "type": "function",
      "constant": true
    },
    {
      "inputs": [
        {
          "internalType": "uint256",
          "name": "tokenId",
          "type": "uint256"
        }
      ],
      "name": "ownerOf",
      "outputs": [
        {
          "internalType": "address",
          "name": "owner",
          "type": "address"
        }
      ],
      "stateMutability": "view",
      "type": "function",
      "constant": true
    },
    {
      "inputs": [
        {
          "internalType": "address",
          "name": "to",
          "type": "address"
        },
        {
          "internalType": "uint256",
          "name": "tokenId",
          "type": "uint256"
        }
      ],
      "name": "transfer",
      "outputs": [],
      "stateMutability": "nonpayable",
      "type": "function"
    }
  ],
  "bytecode": "0x60806040526040518060400160405280600981526020017f4b69747479436f696e00000000000000000000000000000000000000000000008152506001908051906020019062000051929190620001a0565b506040518060400160405280600381526020017f4b54430000000000000000000000000000000000000000000000000000000000815250600290805190602001906200009f929190620001a0565b50348015620000ad57600080fd5b50620000ce620000c2620000d460201b60201c565b620000dc60201b60201c565b620002b5565b600033905090565b60008060009054906101000a900473ffffffffffffffffffffffffffffffffffffffff169050816000806101000a81548173ffffffffffffffffffffffffffffffffffffffff021916908373ffffffffffffffffffffffffffffffffffffffff1602179055508173ffffffffffffffffffffffffffffffffffffffff168173ffffffffffffffffffffffffffffffffffffffff167f8be0079c531659141344cd1fd0a4f28419497f9722a3daafe3b4186f6b6457e060405160405180910390a35050565b828054620001ae9062000250565b90600052602060002090601f016020900481019282620001d257600085556200021e565b82601f10620001ed57805160ff19168380011785556200021e565b828001600101855582156200021e579182015b828111156200021d57825182559160200191906001019062000200565b5b5090506200022d919062000231565b5090565b5b808211156200024c57600081600090555060010162000232565b5090565b600060028204905060018216806200026957607f821691505b6020821081141562000280576200027f62000286565b5b50919050565b7f4e487b7100000000000000000000000000000000000000000000000000000000600052602260045260246000fd5b61157580620002c56000396000f3fe608060405234801561001057600080fd5b50600436106100f45760003560e01c80638da5cb5b11610097578063b6d7855a11610066578063b6d7855a14610251578063d5a776ca1461026f578063e98b7f4d1461029f578063f2fde38b146102d3576100f4565b80638da5cb5b146101db5780639296bb84146101f957806395d89b4114610217578063a9059cbb14610235576100f4565b806318160ddd116100d357806318160ddd146101535780636352211e1461017157806370a08231146101a1578063715018a6146101d1576100f4565b8062c8fbd4146100f957806306fdde031461011757806315b3f9cf14610135575b600080fd5b6101016102ef565b60405161010e9190611262565b60405180910390f35b61011f61037d565b60405161012c9190611262565b60405180910390f35b61013d61040f565b60405161014a9190611304565b60405180910390f35b61015b610415565b6040516101689190611304565b60405180910390f35b61018b6004803603810190610186919061104e565b61041f565b60405161019891906111f4565b60405180910390f35b6101bb60048036038101906101b69190610fe9565b61045c565b6040516101c89190611304565b60405180910390f35b6101d96104a5565b005b6101e361052d565b6040516101f091906111f4565b60405180910390f35b610201610556565b60405161020e9190611304565b60405180910390f35b61021f61055b565b60405161022c9190611262565b60405180910390f35b61024f600480360381019061024a9190611012565b6105ed565b005b6102596107a1565b6040516102669190611262565b60405180910390f35b6102896004803603810190610284919061104e565b61082f565b6040516102969190611304565b60405180910390f35b6102b960048036038101906102b4919061104e565b6108ea565b6040516102ca95949392919061131f565b60405180910390f35b6102ed60048036038101906102e89190610fe9565b610ae9565b005b600280546102fc90611427565b80601f016020809104026020016040519081016040528092919081815260200182805461032890611427565b80156103755780601f1061034a57610100808354040283529160200191610375565b820191906000526020600020905b81548152906001019060200180831161035857829003601f168201915b505050505081565b60606001805461038c90611427565b80601f01602080910402602001604051908101604052809291908181526020018280546103b890611427565b80156104055780601f106103da57610100808354040283529160200191610405565b820191906000526020600020905b8154815290600101906020018083116103e857829003601f168201915b5050505050905090565b60075481565b6000600354905090565b60006004600083815260200190815260200160002060009054906101000a900473ffffffffffffffffffffffffffffffffffffffff169050919050565b6000600560008373ffffffffffffffffffffffffffffffffffffffff1673ffffffffffffffffffffffffffffffffffffffff168152602001908152602001600020549050919050565b6104ad610be1565b73ffffffffffffffffffffffffffffffffffffffff166104cb61052d565b73ffffffffffffffffffffffffffffffffffffffff1614610521576040517f08c379a0000000000000000000000000000000000000000000000000000000008152600401610518906112a4565b60405180910390fd5b61052b6000610be9565b565b60008060009054906101000a900473ffffffffffffffffffffffffffffffffffffffff16905090565b600a81565b60606002805461056a90611427565b80601f016020809104026020016040519081016040528092919081815260200182805461059690611427565b80156105e35780601f106105b8576101008083540402835291602001916105e3565b820191906000526020600020905b8154815290600101906020018083116105c657829003601f168201915b5050505050905090565b600073ffffffffffffffffffffffffffffffffffffffff168273ffffffffffffffffffffffffffffffffffffffff16141561065d576040517f08c379a0000000000000000000000000000000000000000000000000000000008152600401610654906112c4565b60405180910390fd5b3073ffffffffffffffffffffffffffffffffffffffff168273ffffffffffffffffffffffffffffffffffffffff1614156106cc576040517f08c379a00000000000000000000000000000000000000000000000000000000081526004016106c3906112e4565b60405180910390fd5b3373ffffffffffffffffffffffffffffffffffffffff166004600083815260200190815260200160002060009054906101000a900473ffffffffffffffffffffffffffffffffffffffff1673ffffffffffffffffffffffffffffffffffffffff161461073757600080fd5b610742338383610cad565b808273ffffffffffffffffffffffffffffffffffffffff163373ffffffffffffffffffffffffffffffffffffffff167fddf252ad1be2c89b69c2b068fc378daa952ba7f163c4a11628f55a4df523b3ef60405160405180910390a45050565b600180546107ae90611427565b80601f01602080910402602001604051908101604052809291908181526020018280546107da90611427565b80156108275780601f106107fc57610100808354040283529160200191610827565b820191906000526020600020905b81548152906001019060200180831161080a57829003601f168201915b505050505081565b6000610839610be1565b73ffffffffffffffffffffffffffffffffffffffff1661085761052d565b73ffffffffffffffffffffffffffffffffffffffff16146108ad576040517f08c379a00000000000000000000000000000000000000000000000000000000081526004016108a4906112a4565b60405180910390fd5b600a600754106108bc57600080fd5b600760008154809291906108cf90611459565b91905055506108e360008060008533610e3e565b9050919050565b60008060008060006006868154811061092c577f4e487b7100000000000000000000000000000000000000000000000000000000600052603260045260246000fd5b906000526020600020906002020160010160089054906101000a900463ffffffff1660068781548110610988577f4e487b7100000000000000000000000000000000000000000000000000000000600052603260045260246000fd5b9060005260206000209060020201600101600c9054906101000a900463ffffffff16600688815481106109e4577f4e487b7100000000000000000000000000000000000000000000000000000000600052603260045260246000fd5b906000526020600020906002020160010160109054906101000a900461ffff1660068981548110610a3e577f4e487b7100000000000000000000000000000000000000000000000000000000600052603260045260246000fd5b90600052602060002090600202016000015460068a81548110610a8a577f4e487b7100000000000000000000000000000000000000000000000000000000600052603260045260246000fd5b906000526020600020906002020160010160009054906101000a900467ffffffffffffffff168463ffffffff1694508363ffffffff1693508261ffff1692508067ffffffffffffffff1690509450945094509450945091939590929450565b610af1610be1565b73ffffffffffffffffffffffffffffffffffffffff16610b0f61052d565b73ffffffffffffffffffffffffffffffffffffffff1614610b65576040517f08c379a0000000000000000000000000000000000000000000000000000000008152600401610b5c906112a4565b60405180910390fd5b600073ffffffffffffffffffffffffffffffffffffffff168173ffffffffffffffffffffffffffffffffffffffff161415610bd5576040517f08c379a0000000000000000000000000000000000000000000000000000000008152600401610bcc90611284565b60405180910390fd5b610bde81610be9565b50565b600033905090565b60008060009054906101000a900473ffffffffffffffffffffffffffffffffffffffff169050816000806101000a81548173ffffffffffffffffffffffffffffffffffffffff021916908373ffffffffffffffffffffffffffffffffffffffff1602179055508173ffffffffffffffffffffffffffffffffffffffff168173ffffffffffffffffffffffffffffffffffffffff167f8be0079c531659141344cd1fd0a4f28419497f9722a3daafe3b4186f6b6457e060405160405180910390a35050565b600560008373ffffffffffffffffffffffffffffffffffffffff1673ffffffffffffffffffffffffffffffffffffffff1681526020019081526020016000206000815480929190610cfd90611459565b9190505550816004600083815260200190815260200160002060006101000a81548173ffffffffffffffffffffffffffffffffffffffff021916908373ffffffffffffffffffffffffffffffffffffffff160217905550600073ffffffffffffffffffffffffffffffffffffffff168373ffffffffffffffffffffffffffffffffffffffff1614610dde57600560008473ffffffffffffffffffffffffffffffffffffffff1673ffffffffffffffffffffffffffffffffffffffff1681526020019081526020016000206000815480929190610dd8906113fd565b91905055505b808273ffffffffffffffffffffffffffffffffffffffff168473ffffffffffffffffffffffffffffffffffffffff167fddf252ad1be2c89b69c2b068fc378daa952ba7f163c4a11628f55a4df523b3ef60405160405180910390a4505050565b6000806040518060a001604052808581526020014267ffffffffffffffff1681526020018863ffffffff1681526020018763ffffffff1681526020018661ffff1681525090506000600680549050905060068290806001815401808255809150506001900390600052602060002090600202016000909190919091506000820151816000015560208201518160010160006101000a81548167ffffffffffffffff021916908367ffffffffffffffff16021790555060408201518160010160086101000a81548163ffffffff021916908363ffffffff160217905550606082015181600101600c6101000a81548163ffffffff021916908363ffffffff16021790555060808201518160010160106101000a81548161ffff021916908361ffff16021790555050507f0a5311bd2a6608f08a180df2ee7c5946819a649b204b554bb8e39825b2c50ad584828a8a89604051610f9d95949392919061120f565b60405180910390a1610fb160008583610cad565b809250505095945050505050565b600081359050610fce81611511565b92915050565b600081359050610fe381611528565b92915050565b600060208284031215610ffb57600080fd5b600061100984828501610fbf565b91505092915050565b6000806040838503121561102557600080fd5b600061103385828601610fbf565b925050602061104485828601610fd4565b9150509250929050565b60006020828403121561106057600080fd5b600061106e84828501610fd4565b91505092915050565b6110808161138e565b82525050565b600061109182611372565b61109b818561137d565b93506110ab8185602086016113ca565b6110b481611500565b840191505092915050565b60006110cc60268361137d565b91507f4f776e61626c653a206e6577206f776e657220697320746865207a65726f206160008301527f64647265737300000000000000000000000000000000000000000000000000006020830152604082019050919050565b600061113260208361137d565b91507f4f776e61626c653a2063616c6c6572206973206e6f7420746865206f776e65726000830152602082019050919050565b6000611172601a8361137d565b91507f63616e6e6f7420626520746865207a65726f20616464726573730000000000006000830152602082019050919050565b60006111b2601f8361137d565b91507f63616e206e6f742062652074686520636f6e74726163742061646472657373006000830152602082019050919050565b6111ee816113c0565b82525050565b60006020820190506112096000830184611077565b92915050565b600060a0820190506112246000830188611077565b61123160208301876111e5565b61123e60408301866111e5565b61124b60608301856111e5565b61125860808301846111e5565b9695505050505050565b6000602082019050818103600083015261127c8184611086565b905092915050565b6000602082019050818103600083015261129d816110bf565b9050919050565b600060208201905081810360008301526112bd81611125565b9050919050565b600060208201905081810360008301526112dd81611165565b9050919050565b600060208201905081810360008301526112fd816111a5565b9050919050565b600060208201905061131960008301846111e5565b92915050565b600060a08201905061133460008301886111e5565b61134160208301876111e5565b61134e60408301866111e5565b61135b60608301856111e5565b61136860808301846111e5565b9695505050505050565b600081519050919050565b600082825260208201905092915050565b6000611399826113a0565b9050919050565b600073ffffffffffffffffffffffffffffffffffffffff82169050919050565b6000819050919050565b60005b838110156113e85780820151818401526020810190506113cd565b838111156113f7576000848401525b50505050565b6000611408826113c0565b9150600082141561141c5761141b6114a2565b5b600182039050919050565b6000600282049050600182168061143f57607f821691505b60208210811415611453576114526114d1565b5b50919050565b6000611464826113c0565b91507fffffffffffffffffffffffffffffffffffffffffffffffffffffffffffffffff821415611497576114966114a2565b5b600182019050919050565b7f4e487b7100000000000000000000000000000000000000000000000000000000600052601160045260246000fd5b7f4e487b7100000000000000000000000000000000000000000000000000000000600052602260045260246000fd5b6000601f19601f8301169050919050565b61151a8161138e565b811461152557600080fd5b50565b611531816113c0565b811461153c57600080fd5b5056fea2646970667358221220f2fcf43fcb4d2c3dc722ab1d197a6ef6db5537403ab60934728f4825b6330b3364736f6c63430008000033",
  "immutableReferences": {},
  "source": "// SPDX-License-Identifier: MIT\r\npragma solidity ^0.8.0;\r\n\r\nimport \"./IERC721.sol\";\r\nimport \"../node_modules/@openzeppelin/contracts/utils/math/SafeMath.sol\";\r\nimport \"..//node_modules/@openzeppelin/contracts/access/Ownable.sol\"; \r\n\r\n  contract Kittycontract is IERC721, Ownable {\r\n    \r\n     using SafeMath for uint256;\r\n\r\n    uint256 public constant LIMIT_GEN0_CAT = 10;\r\n    string public TokenName = \"KittyCoin\";\r\n    string public TokenSymbol = \"KTC\";\r\n    uint256 TokenAmount;\r\n    event Birth(address owner, uint256 newKittyID, uint256 momId, uint256 dadId, uint256 gens);\r\n\r\n     mapping (uint256 => address) kittyIndexToOwner;   //owner of token\r\n     mapping (address => uint256) ownerShipTokenCount; //token balance\r\n\r\n     struct Kitty{\r\n         uint256 gens; \r\n         uint64 birthTime;\r\n         uint32 momId;\r\n         uint32 dadId;\r\n         uint16 generation;\r\n     }\r\n\r\n     Kitty[] kitties;\r\n\r\n     function createKitty (uint256 _momId, uint256 _dadId, uint256 _generation, uint256 _gens,  address _owner  ) private returns (uint256) { // vraca cat ID \r\n\r\n        // kreiramo novi struct object using the name of the struct, pa zagrade kao function call, pa onda viticaste kao object \r\n        Kitty memory _kitty = Kitty({gens: _gens, birthTime: uint64(block.timestamp), momId: uint32(_momId), dadId: uint32(_dadId), generation: uint16(_generation)});\r\n        \r\n        uint256 newKittyID = kitties.length; // will be the index position before push the new kitty\r\n        kitties.push(_kitty); // we push the new kitty, the index should be the same than newKittyID;\r\n\r\n        emit Birth(_owner, newKittyID, _momId, _dadId, _gens);\r\n\r\n        _transfer(address(0), _owner, newKittyID);\r\n\r\n        return newKittyID; \r\n     }\r\n\r\n    uint256 public counterCat;\r\n\r\n    function createKittyGen0(uint256 _gens) public onlyOwner returns(uint256){\r\n        require(counterCat < LIMIT_GEN0_CAT);\r\n        counterCat++;\r\n\r\n        return createKitty(0,0,0, _gens, msg.sender);\r\n    }\r\n\r\n    function getKitty(uint256 _tokenId) external view returns(uint256 momId, uint256 dadId, uint256 generation, uint256 gens, uint256 birthTime){\r\n        \r\n        return(kitties[_tokenId].momId, kitties[_tokenId].dadId, kitties[_tokenId].generation, kitties[_tokenId].gens, kitties[_tokenId].birthTime);\r\n    }\r\n\r\n    function balanceOf(address owner) override external view returns (uint256 balance){\r\n       return ownerShipTokenCount[owner];\r\n    }\r\n\r\n    function totalSupply() override external view returns (uint256 total){\r\n         total = TokenAmount;\r\n    }\r\n\r\n    function name() override external view returns (string memory tokenName){\r\n         tokenName = TokenName;\r\n    }\r\n\r\n    function symbol() override external view returns (string memory tokenSymbol){\r\n         tokenSymbol = TokenSymbol;\r\n    }\r\n\r\n    function ownerOf(uint256 tokenId) override external view returns (address owner){\r\n        return kittyIndexToOwner[tokenId];\r\n    }\r\n\r\n    function transfer(address to, uint256 tokenId) override external{\r\n        require(to != address(0), \"cannot be the zero address\");\r\n        require(to != address(this), \"can not be the contract address\");\r\n        require(kittyIndexToOwner[tokenId] == msg.sender);\r\n\r\n        _transfer(msg.sender, to, tokenId);\r\n\r\n        emit Transfer(msg.sender, to, tokenId);\r\n    }\r\n\r\n    function _transfer(address _from, address _to, uint256 _tokenId) internal {\r\n        ownerShipTokenCount[_to]++;\r\n\r\n        kittyIndexToOwner[_tokenId] = _to;\r\n\r\n        if(_from != address(0)){\r\n            ownerShipTokenCount[_from]-- ;\r\n        }\r\n        emit Transfer(_from, _to, _tokenId);\r\n    }\r\n\r\n\r\n\r\n}",
  "sourcePath": "C:\\IvanOnTech academy\\Dapp programming\\CryptoKitties\\Git_Template\\academy-kitties-template\\contracts\\Kittycontract.sol",
  "compiler": {
    "name": "solc",
    "version": "0.8.0+commit.c7dfd78e.Emscripten.clang"
  },
  "schemaVersion": "3.4.2",
  "updatedAt": "2022-04-21T13:44:31.993Z",
  "networkType": "ethereum",
  "devdoc": {
    "kind": "dev",
    "methods": {
      "balanceOf(address)": {
        "details": "Returns the number of tokens in ``owner``'s account."
      },
      "owner()": {
        "details": "Returns the address of the current owner."
      },
      "ownerOf(uint256)": {
        "details": "Returns the owner of the `tokenId` token. Requirements: - `tokenId` must exist."
      },
      "renounceOwnership()": {
        "details": "Leaves the contract without owner. It will not be possible to call `onlyOwner` functions anymore. Can only be called by the current owner. NOTE: Renouncing ownership will leave the contract without an owner, thereby removing any functionality that is only available to the owner."
      },
      "transferOwnership(address)": {
        "details": "Transfers ownership of the contract to a new account (`newOwner`). Can only be called by the current owner."
      }
    },
    "version": 1
  },
  "userdoc": {
    "kind": "user",
    "methods": {},
    "version": 1
  }
}