{
  "contractName": "mojKittyContract",
  "abi": [
    {
      "anonymous": false,
      "inputs": [
        {
          "indexed": true,
          "internalType": "address",
          "name": "owner",
          "type": "address"
        },
        {
          "indexed": true,
          "internalType": "address",
          "name": "approved",
          "type": "address"
        },
        {
          "indexed": true,
          "internalType": "uint256",
          "name": "tokenId",
          "type": "uint256"
        }
      ],
      "name": "Approval",
      "type": "event"
    },
    {
      "anonymous": false,
      "inputs": [
        {
          "indexed": false,
          "internalType": "address",
          "name": "owner",
          "type": "address"
        },
        {
          "indexed": false,
          "internalType": "uint256",
          "name": "kittenId",
          "type": "uint256"
        },
        {
          "indexed": false,
          "internalType": "uint256",
          "name": "mumId",
          "type": "uint256"
        },
        {
          "indexed": false,
          "internalType": "uint256",
          "name": "dadId",
          "type": "uint256"
        },
        {
          "indexed": false,
          "internalType": "uint256",
          "name": "genes",
          "type": "uint256"
        }
      ],
      "name": "Birth",
      "type": "event"
    },
    {
      "anonymous": false,
      "inputs": [
        {
          "indexed": true,
          "internalType": "address",
          "name": "previousOwner",
          "type": "address"
        },
        {
          "indexed": true,
          "internalType": "address",
          "name": "newOwner",
          "type": "address"
        }
      ],
      "name": "OwnershipTransferred",
      "type": "event"
    },
    {
      "anonymous": false,
      "inputs": [
        {
          "indexed": true,
          "internalType": "address",
          "name": "from",
          "type": "address"
        },
        {
          "indexed": true,
          "internalType": "address",
          "name": "to",
          "type": "address"
        },
        {
          "indexed": true,
          "internalType": "uint256",
          "name": "tokenId",
          "type": "uint256"
        }
      ],
      "name": "Transfer",
      "type": "event"
    },
    {
      "inputs": [],
      "name": "LIMIT_GEN0_CREATIONS",
      "outputs": [
        {
          "internalType": "uint256",
          "name": "",
          "type": "uint256"
        }
      ],
      "stateMutability": "view",
      "type": "function",
      "constant": true
    },
    {
      "inputs": [],
      "name": "_name",
      "outputs": [
        {
          "internalType": "string",
          "name": "",
          "type": "string"
        }
      ],
      "stateMutability": "view",
      "type": "function",
      "constant": true
    },
    {
      "inputs": [],
      "name": "_symbol",
      "outputs": [
        {
          "internalType": "string",
          "name": "",
          "type": "string"
        }
      ],
      "stateMutability": "view",
      "type": "function",
      "constant": true
    },
    {
      "inputs": [],
      "name": "gen0Counter",
      "outputs": [
        {
          "internalType": "uint256",
          "name": "",
          "type": "uint256"
        }
      ],
      "stateMutability": "view",
      "type": "function",
      "constant": true
    },
    {
      "inputs": [],
      "name": "owner",
      "outputs": [
        {
          "internalType": "address",
          "name": "",
          "type": "address"
        }
      ],
      "stateMutability": "view",
      "type": "function",
      "constant": true
    },
    {
      "inputs": [],
      "name": "renounceOwnership",
      "outputs": [],
      "stateMutability": "nonpayable",
      "type": "function"
    },
    {
      "inputs": [
        {
          "internalType": "address",
          "name": "newOwner",
          "type": "address"
        }
      ],
      "name": "transferOwnership",
      "outputs": [],
      "stateMutability": "nonpayable",
      "type": "function"
    },
    {
      "inputs": [
        {
          "internalType": "uint256",
          "name": "_genes",
          "type": "uint256"
        }
      ],
      "name": "createKittyGen0",
      "outputs": [],
      "stateMutability": "nonpayable",
      "type": "function"
    },
    {
      "inputs": [
        {
          "internalType": "uint256",
          "name": "tokenId",
          "type": "uint256"
        }
      ],
      "name": "getCat",
      "outputs": [
        {
          "internalType": "uint256",
          "name": "",
          "type": "uint256"
        },
        {
          "internalType": "uint64",
          "name": "",
          "type": "uint64"
        },
        {
          "internalType": "uint32",
          "name": "",
          "type": "uint32"
        },
        {
          "internalType": "uint32",
          "name": "",
          "type": "uint32"
        },
        {
          "internalType": "uint16",
          "name": "",
          "type": "uint16"
        }
      ],
      "stateMutability": "view",
      "type": "function",
      "constant": true
    },
    {
      "inputs": [
        {
          "internalType": "address",
          "name": "owner",
          "type": "address"
        }
      ],
      "name": "balanceOf",
      "outputs": [
        {
          "internalType": "uint256",
          "name": "balance",
          "type": "uint256"
        }
      ],
      "stateMutability": "view",
      "type": "function",
      "constant": true
    },
    {
      "inputs": [],
      "name": "totalSupply",
      "outputs": [
        {
          "internalType": "uint256",
          "name": "total",
          "type": "uint256"
        }
      ],
      "stateMutability": "view",
      "type": "function",
      "constant": true
    },
    {
      "inputs": [],
      "name": "name",
      "outputs": [
        {
          "internalType": "string",
          "name": "tokenName",
          "type": "string"
        }
      ],
      "stateMutability": "view",
      "type": "function",
      "constant": true
    },
    {
      "inputs": [],
      "name": "symbol",
      "outputs": [
        {
          "internalType": "string",
          "name": "tokenSymbol",
          "type": "string"
        }
      ],
      "stateMutability": "view",
      "type": "function",
      "constant": true
    },
    {
      "inputs": [
        {
          "internalType": "uint256",
          "name": "tokenId",
          "type": "uint256"
        }
      ],
      "name": "ownerOf",
      "outputs": [
        {
          "internalType": "address",
          "name": "owner",
          "type": "address"
        }
      ],
      "stateMutability": "view",
      "type": "function",
      "constant": true
    },
    {
      "inputs": [
        {
          "internalType": "address",
          "name": "to",
          "type": "address"
        },
        {
          "internalType": "uint256",
          "name": "tokenId",
          "type": "uint256"
        }
      ],
      "name": "transfer",
      "outputs": [],
      "stateMutability": "nonpayable",
      "type": "function"
    }
  ],
  "bytecode": "0x608060405234801561001057600080fd5b5061002d61002261003260201b60201c565b61003a60201b60201c565b6100fe565b600033905090565b60008060009054906101000a900473ffffffffffffffffffffffffffffffffffffffff169050816000806101000a81548173ffffffffffffffffffffffffffffffffffffffff021916908373ffffffffffffffffffffffffffffffffffffffff1602179055508173ffffffffffffffffffffffffffffffffffffffff168173ffffffffffffffffffffffffffffffffffffffff167f8be0079c531659141344cd1fd0a4f28419497f9722a3daafe3b4186f6b6457e060405160405180910390a35050565b6115da8061010d6000396000f3fe608060405234801561001057600080fd5b50600436106100f55760003560e01c806395d89b4111610097578063d28d885211610066578063d28d885214610268578063d5a776ca14610286578063ef5e94aa146102a2578063f2fde38b146102c0576100f5565b806395d89b41146101f2578063a9059cbb14610210578063b09f12661461022c578063bee32c7f1461024a576100f5565b80636352211e116100d35780636352211e1461016a57806370a082311461019a578063715018a6146101ca5780638da5cb5b146101d4576100f5565b806306fdde03146100fa57806318160ddd146101185780634da2b48e14610136575b600080fd5b6101026102dc565b60405161010f91906112a2565b60405180910390f35b610120610319565b60405161012d9190611364565b60405180910390f35b610150600480360381019061014b9190610faf565b610323565b60405161016195949392919061137f565b60405180910390f35b610184600480360381019061017f9190610faf565b6104fc565b6040516101919190611234565b60405180910390f35b6101b460048036038101906101af9190610f4a565b6105a8565b6040516101c19190611364565b60405180910390f35b6101d2610660565b005b6101dc6106e8565b6040516101e99190611234565b60405180910390f35b6101fa610711565b60405161020791906112a2565b60405180910390f35b61022a60048036038101906102259190610f73565b61074e565b005b61023461089f565b60405161024191906112a2565b60405180910390f35b6102526108d8565b60405161025f9190611364565b60405180910390f35b6102706108dd565b60405161027d91906112a2565b60405180910390f35b6102a0600480360381019061029b9190610faf565b610916565b005b6102aa6109cc565b6040516102b79190611364565b60405180910390f35b6102da60048036038101906102d59190610f4a565b6109d2565b005b60606040518060400160405280600b81526020017f4265536d617274436f696e000000000000000000000000000000000000000000815250905090565b6000600154905090565b600080600080600060028681548110610365577f4e487b7100000000000000000000000000000000000000000000000000000000600052603260045260246000fd5b906000526020600020906002020160000154600287815481106103b1577f4e487b7100000000000000000000000000000000000000000000000000000000600052603260045260246000fd5b906000526020600020906002020160010160009054906101000a900467ffffffffffffffff1660028881548110610411577f4e487b7100000000000000000000000000000000000000000000000000000000600052603260045260246000fd5b906000526020600020906002020160010160089054906101000a900463ffffffff166002898154811061046d577f4e487b7100000000000000000000000000000000000000000000000000000000600052603260045260246000fd5b9060005260206000209060020201600101600c9054906101000a900463ffffffff1660028a815481106104c9577f4e487b7100000000000000000000000000000000000000000000000000000000600052603260045260246000fd5b906000526020600020906002020160010160109054906101000a900461ffff169450945094509450945091939590929450565b60008073ffffffffffffffffffffffffffffffffffffffff168173ffffffffffffffffffffffffffffffffffffffff16141561056d576040517f08c379a000000000000000000000000000000000000000000000000000000000815260040161056490611324565b60405180910390fd5b6004600083815260200190815260200160002060009054906101000a900473ffffffffffffffffffffffffffffffffffffffff169050919050565b60008073ffffffffffffffffffffffffffffffffffffffff168273ffffffffffffffffffffffffffffffffffffffff161415610619576040517f08c379a0000000000000000000000000000000000000000000000000000000008152600401610610906112e4565b60405180910390fd5b600360008373ffffffffffffffffffffffffffffffffffffffff1673ffffffffffffffffffffffffffffffffffffffff168152602001908152602001600020549050919050565b610668610aca565b73ffffffffffffffffffffffffffffffffffffffff166106866106e8565b73ffffffffffffffffffffffffffffffffffffffff16146106dc576040517f08c379a00000000000000000000000000000000000000000000000000000000081526004016106d390611344565b60405180910390fd5b6106e66000610ad2565b565b60008060009054906101000a900473ffffffffffffffffffffffffffffffffffffffff16905090565b60606040518060400160405280600381526020017f4253430000000000000000000000000000000000000000000000000000000000815250905090565b600073ffffffffffffffffffffffffffffffffffffffff168273ffffffffffffffffffffffffffffffffffffffff1614156107be576040517f08c379a00000000000000000000000000000000000000000000000000000000081526004016107b590611324565b60405180910390fd5b3073ffffffffffffffffffffffffffffffffffffffff168273ffffffffffffffffffffffffffffffffffffffff16141561082d576040517f08c379a000000000000000000000000000000000000000000000000000000000815260040161082490611304565b60405180910390fd5b6108373382610b96565b61084057600080fd5b808273ffffffffffffffffffffffffffffffffffffffff163373ffffffffffffffffffffffffffffffffffffffff167fddf252ad1be2c89b69c2b068fc378daa952ba7f163c4a11628f55a4df523b3ef60405160405180910390a45050565b6040518060400160405280600381526020017f425343000000000000000000000000000000000000000000000000000000000081525081565b600a81565b6040518060400160405280600b81526020017f4265536d617274436f696e00000000000000000000000000000000000000000081525081565b61091e610aca565b73ffffffffffffffffffffffffffffffffffffffff1661093c6106e8565b73ffffffffffffffffffffffffffffffffffffffff1614610992576040517f08c379a000000000000000000000000000000000000000000000000000000000815260040161098990611344565b60405180910390fd5b600a600554106109a157600080fd5b600560008154809291906109b4906114ed565b91905055506109c860008083600033610c02565b5050565b60055481565b6109da610aca565b73ffffffffffffffffffffffffffffffffffffffff166109f86106e8565b73ffffffffffffffffffffffffffffffffffffffff1614610a4e576040517f08c379a0000000000000000000000000000000000000000000000000000000008152600401610a4590611344565b60405180910390fd5b600073ffffffffffffffffffffffffffffffffffffffff168173ffffffffffffffffffffffffffffffffffffffff161415610abe576040517f08c379a0000000000000000000000000000000000000000000000000000000008152600401610ab5906112c4565b60405180910390fd5b610ac781610ad2565b50565b600033905090565b60008060009054906101000a900473ffffffffffffffffffffffffffffffffffffffff169050816000806101000a81548173ffffffffffffffffffffffffffffffffffffffff021916908373ffffffffffffffffffffffffffffffffffffffff1602179055508173ffffffffffffffffffffffffffffffffffffffff168173ffffffffffffffffffffffffffffffffffffffff167f8be0079c531659141344cd1fd0a4f28419497f9722a3daafe3b4186f6b6457e060405160405180910390a35050565b60008273ffffffffffffffffffffffffffffffffffffffff166004600084815260200190815260200160002060009054906101000a900473ffffffffffffffffffffffffffffffffffffffff1673ffffffffffffffffffffffffffffffffffffffff1614905092915050565b6000806040518060a001604052808681526020014267ffffffffffffffff1681526020018863ffffffff1681526020018763ffffffff1681526020018561ffff16815250905060028190806001815401808255809150506001900390600052602060002090600202016000909190919091506000820151816000015560208201518160010160006101000a81548167ffffffffffffffff021916908367ffffffffffffffff16021790555060408201518160010160086101000a81548163ffffffff021916908363ffffffff160217905550606082015181600101600c6101000a81548163ffffffff021916908363ffffffff16021790555060808201518160010160106101000a81548161ffff021916908361ffff160217905550505060006001600280549050610d3491906113ee565b90507f0a5311bd2a6608f08a180df2ee7c5946819a649b204b554bb8e39825b2c50ad584828a8a8a604051610d6d95949392919061124f565b60405180910390a1610d8160008583610d8f565b809250505095945050505050565b600360008373ffffffffffffffffffffffffffffffffffffffff1673ffffffffffffffffffffffffffffffffffffffff1681526020019081526020016000206000815480929190610ddf906114ed565b9190505550816004600083815260200190815260200160002060006101000a81548173ffffffffffffffffffffffffffffffffffffffff021916908373ffffffffffffffffffffffffffffffffffffffff160217905550600073ffffffffffffffffffffffffffffffffffffffff168373ffffffffffffffffffffffffffffffffffffffff1614610ec057600360008473ffffffffffffffffffffffffffffffffffffffff1673ffffffffffffffffffffffffffffffffffffffff1681526020019081526020016000206000815480929190610eba906114c3565b91905055505b808273ffffffffffffffffffffffffffffffffffffffff168473ffffffffffffffffffffffffffffffffffffffff167fddf252ad1be2c89b69c2b068fc378daa952ba7f163c4a11628f55a4df523b3ef60405160405180910390a4505050565b600081359050610f2f81611576565b92915050565b600081359050610f448161158d565b92915050565b600060208284031215610f5c57600080fd5b6000610f6a84828501610f20565b91505092915050565b60008060408385031215610f8657600080fd5b6000610f9485828601610f20565b9250506020610fa585828601610f35565b9150509250929050565b600060208284031215610fc157600080fd5b6000610fcf84828501610f35565b91505092915050565b610fe181611422565b82525050565b6000610ff2826113d2565b610ffc81856113dd565b935061100c818560208601611490565b61101581611565565b840191505092915050565b600061102d6026836113dd565b91507f4f776e61626c653a206e6577206f776e657220697320746865207a65726f206160008301527f64647265737300000000000000000000000000000000000000000000000000006020830152604082019050919050565b60006110936029836113dd565b91507f4552433732313a2061646472657373207a65726f206973206e6f74206120766160008301527f6c6964206f776e657200000000000000000000000000000000000000000000006020830152604082019050919050565b60006110f96023836113dd565b91507f4552433732313a2063616e206e6f7420626520636f6e7472616374206164647260008301527f65737300000000000000000000000000000000000000000000000000000000006020830152604082019050919050565b600061115f6029836113dd565b91507f4552433732313a206f776e657220717565727920666f72206e6f6e657869737460008301527f656e7420746f6b656e00000000000000000000000000000000000000000000006020830152604082019050919050565b60006111c56020836113dd565b91507f4f776e61626c653a2063616c6c6572206973206e6f7420746865206f776e65726000830152602082019050919050565b61120181611434565b82525050565b61121081611462565b82525050565b61121f8161146c565b82525050565b61122e8161147c565b82525050565b60006020820190506112496000830184610fd8565b92915050565b600060a0820190506112646000830188610fd8565b6112716020830187611207565b61127e6040830186611207565b61128b6060830185611207565b6112986080830184611207565b9695505050505050565b600060208201905081810360008301526112bc8184610fe7565b905092915050565b600060208201905081810360008301526112dd81611020565b9050919050565b600060208201905081810360008301526112fd81611086565b9050919050565b6000602082019050818103600083015261131d816110ec565b9050919050565b6000602082019050818103600083015261133d81611152565b9050919050565b6000602082019050818103600083015261135d816111b8565b9050919050565b60006020820190506113796000830184611207565b92915050565b600060a0820190506113946000830188611207565b6113a16020830187611225565b6113ae6040830186611216565b6113bb6060830185611216565b6113c860808301846111f8565b9695505050505050565b600081519050919050565b600082825260208201905092915050565b60006113f982611462565b915061140483611462565b92508282101561141757611416611536565b5b828203905092915050565b600061142d82611442565b9050919050565b600061ffff82169050919050565b600073ffffffffffffffffffffffffffffffffffffffff82169050919050565b6000819050919050565b600063ffffffff82169050919050565b600067ffffffffffffffff82169050919050565b60005b838110156114ae578082015181840152602081019050611493565b838111156114bd576000848401525b50505050565b60006114ce82611462565b915060008214156114e2576114e1611536565b5b600182039050919050565b60006114f882611462565b91507fffffffffffffffffffffffffffffffffffffffffffffffffffffffffffffffff82141561152b5761152a611536565b5b600182019050919050565b7f4e487b7100000000000000000000000000000000000000000000000000000000600052601160045260246000fd5b6000601f19601f8301169050919050565b61157f81611422565b811461158a57600080fd5b50565b61159681611462565b81146115a157600080fd5b5056fea264697066735822122006dcc277b59382e29ce94f9e2282bc78744b8e31ca465a4ad787b71e4c13449564736f6c63430008000033",
  "immutableReferences": {},
  "source": "// SPDX-License-Identifier: MIT\r\npragma solidity ^0.8.0;\r\n\r\nimport \"./IERC721.sol\";\r\nimport \"../node_modules/@openzeppelin/contracts/access/Ownable.sol\";\r\n\r\ncontract mojKittyContract is IERC721, Ownable {\r\n\r\n    string public constant _name = \"BeSmartCoin\";\r\n    string public constant _symbol = \"BSC\";\r\n    uint256 public constant LIMIT_GEN0_CREATIONS = 10;\r\n    uint256 _totalSupply;\r\n\r\n\r\n    event Birth(address owner, uint256 kittenId, uint256 mumId, uint256 dadId, uint256 genes);\r\n\r\n    struct Kitty{\r\n        uint256 genes;\r\n        uint64 BirthTime;\r\n        uint32 mumId;\r\n        uint32 dadId;\r\n        uint16 generation;\r\n    }\r\n\r\n    Kitty[] kitties;\r\n\r\n    mapping(address => uint256) ownerOfNFT;\r\n    mapping(uint256 => address) pointerToOwner;\r\n\r\n    uint256 public gen0Counter;\r\n\r\n    function createKittyGen0(uint256 _genes) public onlyOwner {\r\n        require(gen0Counter < LIMIT_GEN0_CREATIONS);\r\n        gen0Counter++;\r\n        \r\n        _createKitty(0, 0, _genes, 0, msg.sender);\r\n    }\r\n\r\n    function _createKitty(uint256 _mumId, uint256 _dadId, uint256 _genes, uint256 _generation, address _owner) private returns(uint256) {\r\n\r\n        Kitty memory _kitty = Kitty({\r\n            genes: _genes,\r\n            BirthTime: uint64(block.timestamp),\r\n            mumId: uint32(_mumId),\r\n            dadId: uint32(_dadId), \r\n            generation: uint16(_generation)\r\n        });\r\n\r\n        kitties.push(_kitty);\r\n        uint256 newKittenId = kitties.length -1 ; \r\n\r\n        emit Birth(_owner, newKittenId, _mumId, _dadId, _genes);\r\n\r\n        _transfer(address(0), _owner, newKittenId); // birth of the cat, creation of the cat from nowhere\r\n\r\n        return newKittenId;\r\n    }\r\n\r\n     function getCat(uint256 tokenId) public view returns(uint256, uint64, uint32, uint32, uint16){\r\n         // returns from struct\r\n        return (kitties[tokenId].genes, kitties[tokenId].BirthTime, kitties[tokenId].mumId, kitties[tokenId].dadId, kitties[tokenId].generation);\r\n    }\r\n\r\n    function balanceOf(address owner) override external view returns (uint256 balance){\r\n        require(owner != address(0), \"ERC721: address zero is not a valid owner\");\r\n        return ownerOfNFT[owner];\r\n    }\r\n\r\n    function totalSupply() override public view returns (uint256 total){\r\n        return _totalSupply;\r\n    }\r\n\r\n    function name() override external view returns (string memory tokenName){\r\n        return _name;\r\n    }\r\n\r\n    function symbol() override external view returns (string memory tokenSymbol){\r\n        return _symbol;\r\n    }\r\n\r\n    function ownerOf(uint256 tokenId) override external view returns (address owner){\r\n        require(owner != address(0), \"ERC721: owner query for nonexistent token\");\r\n        return pointerToOwner[tokenId];\r\n    }\r\n\r\n    // only from msg.sender to recipient\r\n    function transfer(address to, uint256 tokenId) override external{\r\n        require(to != address(0), \"ERC721: owner query for nonexistent token\");\r\n        require(to != address(this), \"ERC721: can not be contract address\");\r\n        //require(pointerToOwner[tokenId] == msg.sender);\r\n        require(_owns(msg.sender, tokenId));\r\n\r\n\r\n        emit Transfer(msg.sender, to ,tokenId);\r\n    }\r\n\r\n    function _transfer(address _from, address _to, uint256 tokenId) internal {\r\n        ownerOfNFT[_to]++; // increasing token count of the recipient\r\n\r\n        pointerToOwner[tokenId] = _to; \r\n\r\n        if(_from != address(0)) {\r\n            ownerOfNFT[_from]--; // decreasing token count of the sender\r\n        }\r\n\r\n        emit Transfer(_from, _to, tokenId);\r\n    }\r\n\r\n    // returns T or F if pointerToOwner = the person who claim the ownership \r\n    function _owns(address owner, uint256 tokenId) internal view returns(bool){\r\n       return pointerToOwner[tokenId] == owner;  \r\n    }\r\n}\r\n\r\n",
  "sourcePath": "C:\\IvanOnTech academy\\Dapp programming\\CryptoKitties\\Git_Template\\academy-kitties-template\\contracts\\mojContract.sol",
  "compiler": {
    "name": "solc",
    "version": "0.8.0+commit.c7dfd78e.Emscripten.clang"
  },
  "schemaVersion": "3.4.2",
  "updatedAt": "2022-04-21T13:44:32.804Z",
  "networkType": "ethereum",
  "devdoc": {
    "kind": "dev",
    "methods": {
      "balanceOf(address)": {
        "details": "Returns the number of tokens in ``owner``'s account."
      },
      "owner()": {
        "details": "Returns the address of the current owner."
      },
      "ownerOf(uint256)": {
        "details": "Returns the owner of the `tokenId` token. Requirements: - `tokenId` must exist."
      },
      "renounceOwnership()": {
        "details": "Leaves the contract without owner. It will not be possible to call `onlyOwner` functions anymore. Can only be called by the current owner. NOTE: Renouncing ownership will leave the contract without an owner, thereby removing any functionality that is only available to the owner."
      },
      "transferOwnership(address)": {
        "details": "Transfers ownership of the contract to a new account (`newOwner`). Can only be called by the current owner."
      }
    },
    "version": 1
  },
  "userdoc": {
    "kind": "user",
    "methods": {},
    "version": 1
  }
}